:020000040800F2
:10000000000002207D1500082D0800082F080008B8
:100010003108000833080008350800080000000017
:100020000000000000000000000000003708000889
:1000300039080008000000003B0800083D080008DF
:10004000CD150008CD150008CD150008CD15000808
:10005000CD150008CD150008CD150008CD150008F8
:10006000CD150008CD150008CD150008CD150008E8
:10007000CD150008CD150008CD150008CD150008D8
:10008000CD150008CD150008CD150008CD150008C8
:10009000CD150008CD150008CD150008CD150008B8
:1000A000CD150008CD150008CD150008CD150008A8
:1000B000CD150008CD150008CD150008CD15000898
:1000C000CD150008CD150008CD150008CD15000888
:1000D000CD150008CD150008CD150008CD15000878
:1000E000CD150008CD150008CD150008CD15000868
:1000F000CD150008CD150008CD150008CD15000858
:10010000CD150008CD150008CD150008CD15000847
:10011000CD150008CD150008CD150008CD15000837
:10012000CD150008CD150008CD150008CD15000827
:10013000CD1500080000000000000000CD150008EB
:10014000CD150008CD150008CD150008CD15000807
:10015000CD150008CD150008CD150008CD150008F7
:10016000CD150008CD150008CD150008CD150008E7
:10017000CD150008CD150008CD15000800000000C1
:1001800000000000CD150008000000000000000085
:10019000CD1500080000000000000000CD1500088B
:1001A000000000000000000000000000CD15000865
:1001B000CD150008CD150008CD150008CD15000897
:0401C000CD15000851
:1001D00010B5054C237833B9044B13B10448AFF381
:1001E00000800123237010BD70000020000000007B
:1001F000201F000808B5034B1BB103490348AFF3A8
:10020000008008BD0000000074000020201F0008CE
:10021000034613F8012B002AFBD1181A0138704746
:1002200001F0FF01102A2BDB10F0070F08D010F8A7
:10023000013B013A8B422DD010F0070F42B3F6D1AB
:10024000F0B441EA012141EA014122F007047FF0C4
:1002500000070023F0E80256083C85EA010586EA1B
:10026000010685FA47F5A3FA87F586FA47F6A5FA57
:1002700087F68EB9EED1F0BC01F0FF0102F0070263
:1002800032B110F8013B013A83EA010313B1F8D10E
:100290000020704701387047002D06BF35460338EF
:1002A000073815F0010F07D1013015F4807F02BF28
:1002B000013015F4C03F0130F0BC0138704700BF79
:1002C00053B94AB9002908BF00281CBF4FF0FF31BD
:1002D0004FF0FF3000F074B9ADF1080C6DE904CEB9
:1002E00000F006F8DDF804E0DDE9022304B0704711
:1002F0002DE9F047089D04468E46002B4DD18A42D9
:10030000944669D9B2FA82F252B101FA02F3C2F10B
:10031000200120FA01F10CFA02FC41EA030E94409C
:100320004FEA1C48210CBEFBF8F61FFA8CF708FBBD
:1003300016E341EA034306FB07F199420AD91CEB95
:10034000030306F1FF3080F01F81994240F21C81C7
:10035000023E63445B1AA4B2B3FBF8F008FB10330F
:1003600044EA034400FB07F7A7420AD91CEB040444
:1003700000F1FF3380F00A81A74240F20781644414
:10038000023840EA0640E41B00261DB1D440002399
:10039000C5E900433146BDE8F0878B4209D9002DFD
:1003A00000F0EF800026C5E9000130463146BDE887
:1003B000F087B3FA83F6002E4AD18B4202D38242F1
:1003C00000F2F980841A61EB030301209E46002DA0
:1003D000E0D0C5E9004EDDE702B9FFDEB2FA82F2F5
:1003E000002A40F09280A1EB0C014FEA1C471FFA53
:1003F0008CFE0126200CB1FBF7F307FB131140EA3A
:1004000001410EFB03F0884208D91CEB010103F106
:10041000FF3802D2884200F2CB804346091AA4B2C8
:10042000B1FBF7F007FB101144EA01440EFB00FE9C
:10043000A64508D91CEB040400F1FF3102D2A64501
:1004400000F2BB800846A4EB0E0440EA03409CE7A0
:10045000C6F12007B34022FA07FC4CEA030C20FA4D
:1004600007F401FA06F31C43F9404FEA1C4900FA6D
:1004700006F3B1FBF9F8200C1FFA8CFE09FB1811EA
:1004800040EA014108FB0EF0884202FA06F20BD95D
:100490001CEB010108F1FF3A80F08880884240F2AD
:1004A0008580A8F102086144091AA4B2B1FBF9F0F1
:1004B00009FB101144EA014100FB0EFE8E4508D9EC
:1004C0001CEB010100F1FF346CD28E456AD9023871
:1004D000614440EA0840A0FB0294A1EB0E01A14256
:1004E000C846A64656D353D05DB1B3EB080261EBC4
:1004F0000E0101FA07F722FA06F3F1401F43C5E99E
:10050000007100263146BDE8F087C2F12003D840D3
:100510000CFA02FC21FA03F3914001434FEA1C4715
:100520001FFA8CFEB3FBF7F007FB10360B0C43EA07
:10053000064300FB0EF69E4204FA02F408D91CEBB7
:10054000030300F1FF382FD29E422DD902386344B5
:100550009B1B89B2B3FBF7F607FB163341EA034155
:1005600006FB0EF38B4208D91CEB010106F1FF38A4
:1005700016D28B4214D9023E6144C91A46EA00469B
:1005800038E72E46284605E70646E3E61846F8E62D
:100590004B45A9D2B9EB020864EB0C0E0138A3E776
:1005A0004646EAE7204694E74046D1E7D0467BE757
:1005B000023B614432E7304609E76444023842E7CF
:1005C000704700BF0FB410B596B018AA52F8041BBC
:1005D000019202A801F03EF800240CE004F1580357
:1005E0006B4413F8502C0B4B5A600A4B1B6813F0EA
:1005F000800FFAD0013402A8FFF70AFEA042EDD81E
:10060000044B1B6813F0400FFAD016B0BDE8104041
:1006100004B070470044004072B6FEE700B595B0E4
:100620003422002107A800F0F7FF00230293039370
:100630000493059306930093234A116C41F0805173
:100640001164126C02F080520092009A01931F4BC9
:100650001A6842F440421A601B6803F44043019355
:10066000019B012307934FF48033089302230D93DA
:100670004FF480020E9204220F92B4221092119332
:100680001293139307A800F047FBB0B900F062FE85
:10069000A8B90F23029302230393002304934FF47A
:1006A000A05305934FF480530693052102A800F050
:1006B0009DF930B915B05DF804FBFFF7ADFFFFF70A
:1006C000ABFFFFF7A9FF00BF0038024000700040F9
:1006D00038B500F001FFFFF7A1FF00F021F800F0AE
:1006E00053F800F043FF88B900F046FF00242021B2
:1006F000084800F025FE651C21460748FFF762FF09
:100700004FF4FA7000F014FF2C46F0E70348FFF7AF
:1007100059FFEBE700000240601F0008381F000887
:1007200030B589B00024039404940594069407948A
:100730000194134B1A6B42F080021A631A6B02F099
:1007400080020192019A02941A6B42F001021A632C
:100750001B6B03F001030293029B0A4D22462021EA
:10076000284600F0E7FD202303930123049305941A
:10077000069403A9284600F0F1FC09B030BD00BF83
:10078000003802400000024008B50A480A4B0360E6
:100790004FF4E133436000238360C36003610C22A4
:1007A00042618361C36100F0F1F800B908BDFFF751
:1007B00033FFFBE78C0000200044004000B589B007
:1007C0000023039304930593069307930268154B44
:1007D0009A4202D009B05DF804FB0021019103F5B3
:1007E000FA331A6C42F400321A641A6C02F40032C2
:1007F0000192019A02911A6B42F001021A631B6B7B
:1008000003F001030293029B0C230393022304933E
:10081000032306930723079303A9034800F09EFCD4
:10082000D8E700BF0044004000000240FEE7FEE7BA
:10083000FEE7FEE7FEE770477047704708B500F037
:1008400065FE08BD82B0002100910B4B5A6C42F44A
:1008500080425A645A6C02F480420092009A0191DC
:100860001A6C42F080521A641B6C03F0805301939F
:10087000019B02B0704700BF0038024038B5044603
:100880000268136923F44053C1680B431361836802
:100890000269134342691343C2691A430168CB6872
:1008A00023F4164323F00C031343CB60026853690F
:1008B00023F4407381690B4353610368314A9342C7
:1008C00006D002F58062934202D000F045F901E0C3
:1008D00000F052F9E369B3F5004F29D00021031865
:1008E00049411B1841F10001C90041EA5371DB0085
:1008F000181863684FEA83024FEA937341F10001CD
:10090000FFF7DEFC204DA5FB00325109642303FBF9
:1009100011031B013233A5FB03235B0903F0F00233
:1009200002EB011203F00F03216813448B6038BD02
:100930000023021843EB0301121841F10001C90022
:1009400041EA5271D200101841F100016268921818
:100950005B41FFF7B5FC0C4DA5FB00325109642348
:1009600003FB1103DB003233A5FB03235B095A00B1
:1009700002F4F87202EB011203F00703216813443A
:100980008B60D4E7001001401F85EB5160B310B5B8
:10099000044690F8413013B3242384F84130226890
:1009A000D36823F40053D3602046FFF767FF226823
:1009B000136923F4904313612268536923F02A03D7
:1009C00053612268D36843F40053D360002060640D
:1009D000202384F8413084F84230606310BD80F8F1
:1009E0004030FFF7EBFED7E701207047002800F00A
:1009F0009B8070B50D4604464F4B1B6803F00F03F8
:100A00008B4208D2CBB24C4A1370136803F00F0329
:100A10008B4240F08B80236813F0020F17D013F045
:100A2000040F04D0454A936843F4E053936023686D
:100A300013F0080F04D0414A936843F46043936075
:100A40003E4A936823F0F003A1680B439360236848
:100A500013F0010F32D06368012B21D09A1E012AB6
:100A600025D9364A126812F0020F61D033498A68DC
:100A700022F0030213438B6000F054FD06462F4B17
:100A80009B6803F00C036268B3EB820F16D000F092
:100A900049FD801B41F288339842F0D9032042E09F
:100AA000264A126812F4003FE0D101203BE0234ABD
:100AB000126812F0007FD9D1012034E01E4B1B6870
:100AC00003F00F03AB4207D9EAB21B4B1A701B6845
:100AD00003F00F03AB422DD1236813F0040F06D0AF
:100AE000164A936823F4E053E1680B43936023684C
:100AF00013F0080F07D0114A936823F4604321696B
:100B000043EAC103936000F047F80C4B9B68C3F3C2
:100B100003130B4AD35CD8400A4B18600A4B186881
:100B200000F0B4FC002070BD012070470120FAE7FE
:100B30000120F8E70120F6E7003C024000380240BF
:100B4000801F00080800002004000020014B1868E6
:100B5000704700BF0800002008B5FFF7F7FF044BFF
:100B60009B68C3F38223034AD35CD84008BD00BF0F
:100B700000380240901F000808B5FFF7E7FF044B5C
:100B80009B68C3F34233034AD35CD84008BD00BF1F
:100B900000380240901F000808B55C4B9B6803F0CA
:100BA0000C03082B07D00C2B5BD0042B01D058482A
:100BB00008BD5848FCE7554B5A6802F03F025B6895
:100BC00013F4800F2AD0514B5968C1F3881C4FEAA7
:100BD0004C11B1EB0C006EEB0E0E4FEA8E1343EA94
:100BE00090638101091A63EB0E03DB0043EA517342
:100BF000C90011EB0C0C43F10003590200234FEA2A
:100C00004C2041EADC51FFF75BFB404B5B68C3F3D0
:100C1000014301335B00B0FBF3F0C9E73B4B59687C
:100C2000C1F3881C4FEA4C11B1EB0C006EEB0E0EB9
:100C30004FEA8E1343EA90638101091A63EB0E03B6
:100C4000DB0043EA5173C90011EB0C0C43F10003C4
:100C5000990200234FEA8C2041EA9C51FFF730FBB8
:100C6000D3E72A4B5A6802F03F025B6813F4800F07
:100C700028D0264B5968C1F3881C4FEA4C11B1EBC0
:100C80000C006EEB0E0E4FEA8E1343EA9063810167
:100C9000091A63EB0E03DB0043EA5173C90011EB41
:100CA0000C0C43F10003590200234FEA4C2041EAA7
:100CB000DC51FFF705FB154B5B68C3F30273B0FB18
:100CC000F3F075E7114B5968C1F3881C4FEA4C11DA
:100CD000B1EB0C006EEB0E0E4FEA8E1343EA9063FD
:100CE0008101091A63EB0E03DB0043EA5173C9006B
:100CF00011EB0C0C43F10003990200234FEA8C2006
:100D000041EA9C51FFF7DCFAD5E700BF003802400A
:100D10000024F40000127A00002800F0018270B56F
:100D200082B00446036813F0010F41D0994B9B68D1
:100D300003F00C03042B32D0964B9B6803F00C039A
:100D4000082B27D0934B9B6803F00C030C2B59D036
:100D50006368B3F5803F5BD0B3F5A02F5ED08D4BB9
:100D60001A6822F480321A601A6822F480221A600B
:100D70006368002B5CD000F0D5FB0546854B1B68F3
:100D800013F4003F14D100F0CDFB401B6428F5D9CB
:100D90000320CCE17F4B5B6813F4800FD2D07D4BF6
:100DA0001B6813F4003F03D06368002B00F0BA8186
:100DB000236813F0020F60D0764B9B6813F00C0F82
:100DC0004AD0744B9B6803F00C03082B3FD0714B47
:100DD0009B6803F00C030C2B69D0E368002B75D0E3
:100DE0006D4B01221A6000F09DFB0546694B1B68A4
:100DF00013F0020F61D100F095FB401B0228F5D9DA
:100E0000032094E1634B5B6813F4800FA0D0C6E726
:100E1000604A136843F480331360A9E75D4B1A6896
:100E200042F480221A601A6842F480321A609FE706
:100E300000F078FB0546574B1B6813F4003FB7D012
:100E400000F070FB401B6428F5D903206FE1514B83
:100E50005B6813F4800FBAD14E4B1B6813F0020F7E
:100E600003D0E368012B40F05F814A4A136823F006
:100E7000F803216943EAC1031360236813F0080FE4
:100E800049D06369002B33D0434B0122C3F8802E35
:100E900000F048FB05463F4B5B6F13F0020F3AD161
:100EA00000F040FB401B0228F5D903203FE1394BFD
:100EB0005B6813F4800F90D1CEE7364A136823F0B5
:100EC000F803216943EAC1031360D6E7324B0022DD
:100ED0001A6000F027FB05462E4B1B6813F0020F2B
:100EE000CBD000F01FFB401B0228F5D903201EE1E8
:100EF000294B0022C3F8802E00F014FB0546254B39
:100F00005B6F13F0020F06D000F00CFB401B0228B1
:100F1000F5D903200BE1236813F0040F76D01D4BA5
:100F20001B6C13F0805F33D100230193194B1A6CB3
:100F300042F080521A641B6C03F080530193019BB2
:100F40000125164B1B6813F4807F29D0A368012B61
:100F50003AD0052B3ED00F4B1A6F22F001021A67D0
:100F60001A6F22F004021A67A368002B3CD000F02D
:100F7000D9FA0646074B1B6F13F0020F45D100F05C
:100F8000D1FA801B41F288339842F3D90320CEE096
:100F90000025D6E7003802400000474200700040BC
:100FA0006B4A136843F48073136000F0BBFA064683
:100FB000674B1B6813F4807FC8D100F0B3FA801B25
:100FC0000228F5D90320B2E0624A136F43F001030F
:100FD0001367C9E75F4B1A6F42F004021A671A6F72
:100FE00042F001021A67BFE700F09CFA0646594B2F
:100FF0001B6F13F0020F08D000F094FA801B41F22F
:1010000088339842F3D9032091E0EDB9A369002B0E
:1010100000F08C804F4A926802F00C02082A54D0EB
:10102000022B17D04C4B00221A6600F07BFA0446C4
:10103000484B1B6813F0007F45D000F073FA001B8B
:101040000228F5D9032072E0424A136C23F0805342
:101050001364DBE7404B00221A6600F063FA054692
:101060003C4B1B6813F0007F06D000F05BFA401B7E
:101070000228F5D903205AE0E369226A1343626A21
:1010800043EA8213A26A5208013A43EA0243E26A3F
:1010900043EA0263226B43EA02732E4A53602E4BEB
:1010A00001221A6600F03EFA04462A4B1B6813F030
:1010B000007F06D100F036FA001B0228F5D9032084
:1010C00035E0002033E0002031E0012B31D0214B0E
:1010D0005B6803F48001E26991422CD103F03F0286
:1010E000216A8A4229D1616A47F6C0721A40B2EB7E
:1010F000811F24D103F44031A26A5208013AB1EBB6
:10110000024F1ED103F07062E16AB2EB016F1AD197
:1011100003F0E043226BB3EB027F16D1002006E020
:1011200001207047012002E0012000E0002002B011
:1011300070BD0120FBE70120F9E70120F7E701205E
:10114000F5E70120F3E70120F1E70120EFE700BF19
:1011500000700040003802400000474200230F2B7F
:1011600000F2DE8070B582B060E085685E00032426
:10117000B44025EA0405CC68B4402C43846045683B
:1011800025EA02054C68C4F300129A402A434260E3
:101190005AE0DC08083450F8246003F00702950098
:1011A0000F22AA4026EA020E0A69AA4042EA0E026B
:1011B00040F824205CE0062200E0002202FA0EF251
:1011C0002A430234574D45F82420574A94686FEA61
:1011D0000C0224EA0C054E6816F4801F01D04CEA7C
:1011E0000405514CA560E46802EA04054E6816F453
:1011F000001F01D04CEA04054B4CE560646802EA2C
:1012000004054E6816F4003F01D04CEA0405464C34
:101210006560246822404D6815F4803F01D04CEA97
:101220000402414C226001330F2B77D801229A40EF
:101230000C6804EA020C32EA0404F4D14C6804F0AD
:101240000304013C012C90D94A6802F00302032AEE
:1012500009D0C4685D000322AA4024EA02048A6817
:10126000AA402243C2604A6802F00302022A90D0D8
:1012700004684FEA430E032202FA0EF224EA020443
:101280004A6802F0030202FA0EF2224302604A6840
:1012900012F4403FC7D000220192244A546C44F417
:1012A00080445464526C02F480420192019A9C087A
:1012B000A51C1C4A52F8255003F003024FEA820E87
:1012C0000F2202FA0EF225EA0205194A90423FF473
:1012D00074AF02F58062904216D002F580629042AF
:1012E00014D002F58062904212D002F580629042E2
:1012F00010D002F5806290420ED002F580629042DA
:101300003FF459AF072259E7012257E7022255E778
:10131000032253E7042251E705224FE702B070BDD4
:10132000704700BF00380140003C014000380240D7
:10133000000002400AB18161704709048161704771
:10134000436901EA030221EA030141EA02418161A2
:101350007047000010B582B000230193194B1A6C3E
:1013600042F080521A641B6C03F080530193019B7E
:10137000154B01221A6400F0D5F80446134B5B6844
:1013800013F4803F08D100F0CDF8001BB0F57A7F50
:10139000F4D9032002B010BD0B4B01225A6400F0B7
:1013A000C1F80446094B5B6813F4003F07D100F015
:1013B000B9F8001BB0F57A7FF4D90320EAE70020E2
:1013C000E8E700BF0038024000000E420070004015
:1013D000074AD36823F4E0631B041B0C000200F4EB
:1013E000E060034343F0BF6343F40033D3607047CE
:1013F00000ED00E000B5194BDB68C3F30223C3F135
:10140000070CBCF1040F28BF4FF0040C03F1040ECD
:10141000BEF1060F18D9033B4FF0FF3E0EFA0CFC4D
:1014200021EA0C0199400EFA03F322EA030319435F
:1014300000280BDB0901C9B200F1604000F56140F2
:1014400080F800135DF804FB0023E5E700F00F00CF
:101450000901C9B2024B1954F4E700BF00ED00E0E6
:1014600014ED00E00138B0F1807F0BD24FF0E023A3
:101470005861054AF02182F8231000209861072264
:101480001A6170470120704700ED00E010B5044676
:101490000E4B18784FF47A73B3FBF0F30C4A1068D4
:1014A000B0FBF3F0FFF7DEFF68B90F2C01D9012084
:1014B0000AE0002221464FF0FF30FFF79BFF054B6B
:1014C0001C60002000E0012010BD00BF00000020D3
:1014D000080000200400002008B50B4B1A6842F4F5
:1014E00000721A601A6842F480621A601A6842F444
:1014F00080721A600320FFF76BFF0F20FFF7C6FF13
:10150000FFF7A0F9002008BD003C0240034A116823
:10151000034B1B780B441360704700BFD4000020BE
:1015200000000020014B1868704700BFD400002065
:1015300038B50446FFF7F6FF0546B4F1FF3F02D089
:10154000044B1B781C44FFF7EDFF401BA042FAD36D
:1015500038BD00BF00000020034AD2F8883043F4B1
:101560007003C2F88830704700ED00E00148FFF7D3
:1015700029F80020981F000800207047DFF834D0B9
:10158000FFF7EAFF0C480D490D4A002302E0D4584A
:10159000C4500433C4188C42F9D30A4A0A4C0023BD
:1015A00001E013600432A242FBD300F011F8FFF710
:1015B0008FF870470000022000000020700000201B
:1015C000F81F000870000020EC000020FEE700007B
:1015D00070B50D4D0D4C641BA4100026A64209D118
:1015E0000B4D0C4C00F09CFC641BA4100026A64282
:1015F00005D170BD55F8043B98470136EEE755F824
:10160000043B98470136F2E7F01F0008F01F00087E
:10161000F01F0008F41F000802440346934200D163
:10162000704703F8011BF9E700B59BB000910491E6
:101630006FF000410591029105490391694600F060
:101640006FF8009B00221A701BB05DF804FB00BF0E
:101650000802FFFF13460A46014602480068FFF7EA
:10166000E3BF00BF0C0000202DE9F0478E689E42CA
:1016700082460C4690461F4638D88A8912F4906FED
:1016800032D025680969A5EB0109656905EB4505B7
:1016900005EBD57501334B446D109D4238BF1D4697
:1016A000530531D5294600F063FB064650B90C239B
:1016B000CAF80030A38943F04003A3814FF0FF3004
:1016C000BDE8F08721694A4600F0BEFAA38923F4F9
:1016D000906343F08003A381266165614E44A5EBCE
:1016E00009052660A5603E46BE4200D93E462068F8
:1016F0003246414600F0B6FAA3689B1BA3602368FC
:10170000334423600020DBE72A4600F0A5FB0646B1
:101710000028E1D12169504600F0BEFAC7E7000079
:101720002DE9F04F98468B891B069DB007460D4664
:1017300014460ED50B6963B9402100F019FB2860EF
:10174000286120B90C233B604FF0FF30D1E04023EB
:101750006B610023099320238DF82930CDF80C808C
:101760003023DFF8A8818DF82A304FF00109234695
:101770009A4613F8012B0AB1252AF9D1BAEB040BCA
:101780000BD05B46224629463846FFF76DFF0130F5
:1017900000F0AA80099A5A4409929AF80030002B66
:1017A00000F0A28000234FF0FF32CDE905230AF1BB
:1017B000010A049307938DF853301A935446052277
:1017C00014F8011B5148FEF72BFD049AD8B9D00636
:1017D00044BF20238DF85330110744BF2B238DF8CD
:1017E00053309AF800302A2B15D0079A544600201F
:1017F0004FF00A0C214611F8013B303B092B4ED922
:10180000B0B1079214E0A0EB080309FA03F3134305
:101810000493A246D2E7039B191D1B680391002B7A
:10182000BBBF5B4242F0020207930793B8BF04922A
:1018300023782E2B0CD163782A2B35D1039B1A1DCC
:101840001B680392002BB8BF4FF0FF33023405939F
:10185000DFF8C8A0217803225046FEF7E1FC40B132
:101860004023A0EB0A0003FA00F0049B0343013479
:10187000049314F8011B26488DF828100622FEF761
:10188000CFFC002838D0234B1BBB039B073323F02E
:10189000070308330393099B3344099367E70CFB61
:1018A00002320C460120A5E70023013405931946B6
:1018B0004FF00A0C204610F8012B303A092A03D9C0
:1018C000002BC5D00591C3E70CFB01210446012381
:1018D000F0E703AB00932A460F4B04A93846AFF359
:1018E0000080421C0646D6D1AB895B063FF52CAF83
:1018F00009981DB0BDE8F08F03AB00932A46064B54
:1019000004A9384600F07AF8EBE700BFB41F0008DE
:10191000BE1F00080000000069160008BA1F00087A
:101920002DE9F047164699468A680B69DDF8208054
:101930009342B8BF1346336091F8432007460C46E4
:101940000AB1013333602368990642BF336802331A
:101950003360256815F0060506D104F1190AE3681D
:1019600032689B1AAB4226DC94F84320131E22688F
:1019700018BF012392062BD404F14302494638468E
:10198000C04701301ED02368E568326803F00603C3
:10199000042B08BFAD1AA36822690CBF25EAE575C0
:1019A00000259342C4BF9B1AED1800261A34B54295
:1019B0001AD1002008E00123524649463846C04764
:1019C000013003D14FF0FF30BDE8F0870135C6E7A5
:1019D000E1185A1C302081F84300224494F8451045
:1019E00082F843100233C7E70123224649463846AE
:1019F000C0470130E6D00136D9E700002DE9FF47A6
:101A00000F7E0C9D782F914680460C469A4601F138
:101A1000430207D8622F0AD8002F00F0D880582F31
:101A200000F0A38004F1420584F842703AE0A7F187
:101A30006303152BF6D801A151F823F0951A00087D
:101A4000A91A0008251A0008251A0008251A0008F6
:101A5000251A0008A91A0008251A0008251A0008E6
:101A6000251A0008251A0008B51B0008D91A000815
:101A7000971B0008251A0008251A0008D71B000824
:101A8000251A0008D91A0008251A0008251A000886
:101A90009F1B00082B681A1D1B682A6004F1420571
:101AA00084F842300123A3E020682968060601F18A
:101AB00004030AD50E682B60002E03DA2D2376422C
:101AC00084F843305E480A2319E00E682B6010F05A
:101AD000400F18BF36B2EFE72B682068191D296048
:101AE000010601D51E6802E04606FBD51E88544853
:101AF0006F2F0CBF08230A23002184F84310656868
:101B0000A560002DA2BF216821F0040121600EB95B
:101B1000002D4DD01546B6FBF3F103FB1167C75DF1
:101B200005F8017D3746BB420E46F4D9082B0BD190
:101B30002368DE0708D5236961689942DEBF302338
:101B400005F8013C05F1FF35521B2261CDF800A0DC
:101B50004B4603AA21464046FFF7E2FE01304CD136
:101B60004FF0FF3004B0BDE8F087354881F845708C
:101B70002968236851F8046B29601D0614D5DF0716
:101B800044BF43F0200323601EB9236823F02003E1
:101B900023601023B0E7236843F0200323607823F9
:101BA000284884F84530E3E7590648BFB6B2E6E76F
:101BB0001546BBE72B6826686169181D2860350645
:101BC0001B6801D5196002E07006FBD5198000235F
:101BD00023611546BAE72B681A1D2A601D686268E2
:101BE00000212846FEF71CFB08B1401B60606368BB
:101BF0002361002384F84330A8E723692A46494635
:101C00004046D0470130ABD023689B0713D4E0682F
:101C1000039B9842B8BF1846A4E7012332464946C1
:101C20004046D04701309BD00135E36803995B1AE9
:101C3000AB42F2DCEBE7002504F11906F5E700BF43
:101C4000C51F0008D61F00080A44914200F1FF3367
:101C500000D1704710B511F8014B03F8014F9142C4
:101C6000F9D110BD884210B501EB020402D98442BB
:101C7000234607D8431EA14208D011F8012B03F8D0
:101C8000012FF8E7024401468A4200D110BD13F843
:101C9000014D02F8014DF7E737B5002944D051F85E
:101CA000043C0190002BA1F10404B8BFE41800F03B
:101CB00013F91E4A0198136833B96360146003B0C6
:101CC000BDE8304000F00EB9A34208D9256861197B
:101CD0008B4201BF19685B6849192160EDE71A461C
:101CE0005B680BB1A342FAD911685518A5420BD114
:101CF000246821445418A3421160E0D11C685B6839
:101D0000536021441160DAE702D90C230360D6E75F
:101D1000256861198B4204BF19685B68636004BF62
:101D2000491921605460CAE703B030BDD8000020D3
:101D300070B50E4E0C463168054611B900F0BCF87E
:101D400030602146284600F0B7F8431C0AD0C41C76
:101D500024F00304A04207D0211A284600F0ACF872
:101D6000013001D14FF0FF34204670BDDC0000206F
:101D70002DE9F041CD1C25F0030508350C2D38BFA9
:101D80000C25002D074601DBA94205D90C233B6039
:101D900000263046BDE8F0812E4E00F09DF83368F5
:101DA0001C4634BB29463846FFF7C2FF431C044695
:101DB0004DD134682646002E40D12368314638463E
:101DC00004EB030800F078F880453AD12168033528
:101DD0006D1A25F0030508350C2D38BF0C25294652
:101DE0003846FFF7A5FF01302BD023682B44236032
:101DF0000EE02268521B1ED40B2A16D96119A34289
:101E0000256018BF5960636808BF316062514B603C
:101E1000384604F10B0600F065F826F00706231D8E
:101E2000F21AB6D09B1BA350B3E76268A3420CBF63
:101E300032605A60ECE723466468B2E7344676685D
:101E4000B9E70C233B60384600F04CF8A1E7256069
:101E5000DEE700BFD80000202DE9F041804614469F
:101E60000E4621B9BDE8F0411146FFF781BF2AB9FE
:101E7000FFF712FF25462846BDE8F08100F038F84C
:101E80008442074602D8B4EB500F12D82146404690
:101E9000FFF76EFF05460028EDD0BC4222463146D2
:101EA00028BF3A46FFF7D0FE31464046FFF7F4FE22
:101EB000E1E73546DFE7000038B5064D002304466C
:101EC00008462B6000F01EF8431C02D12B6803B1BA
:101ED000236038BDE0000020014800F011B800BFC9
:101EE000E4000020014800F00CB800BFE40000202E
:101EF00051F8043C181F002BBCBF0B58C01870478A
:101F000070477047044A05491368002B08BF0B4609
:101F10001844106018467047E8000020F0000020C8
:101F2000F8B500BFF8BC08BC9E467047F8B500BFC6
:081F3000F8BC08BC9E46704796
:101F3800212121204572726F7220696E697469616E
:101F48006C697A696E672074696E794B65726E6523
:101F58006C202121210D0A004572726F722073686E
:101F68006F756C64206E6F74206265206865726599
:101F78002025640D0A000000000000000000000099
:101F88000102030406070809000000000102030417
:101F98005374617274696E672074696E79546173E1
:101FA8006B73204B65726E656C0D0A00232D302B08
:101FB8002000686C4C006566674546470030313242
:101FC8003334353637383941424344454600303199
:101FD80032333435363738396162636465660000F8
:081FE80008E3FF7F0100000087
:041FF000F5010008EF
:041FF400D10100080F
:101FF80001000000100000000024F4001000002080
:1020080000000000000000000000000000000000C8
:1020180000000000000000000000000000000000B8
:1020280000000000000000000000000000000000A8
:102038000000000000000000000000000000000098
:102048000000000000000000000000000000000088
:102058000000000000000000000000000000000078
:040000050800157D5D
:00000001FF
