:020000040800F2
:1000000000500020D90F0008690500086B050008A2
:100010006D0500086F05000871050008000000006C
:100020000000000000000000000000007305000850
:10003000750500080000000077050008D1040008DD
:1000400021100008211000082110000821100008CC
:1000500021100008211000082110000821100008BC
:1000600021100008211000082110000821100008AC
:10007000211000082110000821100008211000089C
:10008000211000082110000821100008211000088C
:10009000211000082110000821100008211000087C
:1000A000211000082110000821100008211000086C
:1000B000211000082110000821100008211000085C
:1000C000211000082110000821100008211000084C
:1000D000211000082110000821100008211000083C
:1000E0002110000821100008211000080000000065
:1000F0000000000000000000000000000000000000
:0C01000000000000000000005FF808F1A3
:10010C0010B5054C237833B9044B13B10448AFF345
:10011C0000800123237010BD70000020000000003F
:10012C00E421000808B5034B1BB103490348AFF3A6
:10013C00008008BD0000000074000020E4210008CD
:10014C00034613F8012B002AFBD1181A013870470B
:10015C000FB410B596B018AA52F8041B019202A85D
:10016C0001F012F800240CE004F158036B4413F86E
:10017C00502C0B4B5A600A4B1B6813F0800FFAD0B3
:10018C00013402A8FFF7DCFFA042EDD8044B1B683A
:10019C0013F0400FFAD016B0BDE8104004B0704711
:1001AC000038014000B583B000230193084A13685E
:1001BC00013313600748FFF7CBFF00230193019A2B
:1001CC00054B9A42F2DC019B01330193F7E700BF28
:1001DC008C000020FC2100083F420F0000B583B0CA
:1001EC0000230193084A1368013313600748FFF793
:1001FC00AFFF00230193019A054B9A42F2DC019B5D
:10020C0001330193F7E700BF90000020082200089B
:10021C003F420F0000B583B000230193084A1368D6
:10022C00013313600748FFF793FF00230193019AF2
:10023C00054B9A42F2DC019B01330193F7E700BFB7
:10024C0094000020142200083F420F0072B6FEE713
:10025C0000B591B02822002106A800F001FF002370
:10026C0001930293039304930593012206924FF496
:10027C00803307930A9202220D920E934FF4E013EF
:10028C000F9306A800F0B4F980B90F230193022153
:10029C000291002303934FF480620492059301A80A
:1002AC0000F0D8FB20B911B05DF804FBFFF7CEFFCE
:1002BC00FFF7CCFF08B5FFF7CBFF00F017F800F005
:1002CC0051F8064800F042FF054A0649064800F07E
:1002DC00D1F84FF47A7000F019F9FEE720220008EB
:1002EC0021020008E9010008B101000830B589B00D
:1002FC0000240494059406940794184B9A6942F0D0
:10030C0010029A619A6902F010020192019A9A699C
:10031C0042F020029A619A6902F020020292029A3B
:10032C009A6942F004029A619B6903F004030393F7
:10033C00039B0B4D22464FF40051284600F078FDEC
:10034C004FF400530493012305930694022307935F
:10035C0004A9284600F05AFC09B030BD0010024038
:10036C000010014008B50A480A4B03604FF4E13312
:10037C00436000238360C36003610C22426183618C
:10038C00C36100F0F1FD00B908BDFFF75FFFFBE7AB
:10039C00980000200038014010B586B0002302936D
:1003AC000393049305930268174B9A4201D006B04D
:1003BC0010BD03F558439A6942F480429A619A69D8
:1003CC0002F480420092009A9A6942F004029A6107
:1003DC009B6903F004030193019B4FF40073029398
:1003EC000223039303230593084C02A9204600F033
:1003FC000DFC4FF48063029300230393049302A932
:10040C00204600F003FCD2E7003801400008014010
:10041C0010B4154B410201F5E0721A44134C44F828
:10042C0030200B444FF08072C3F8FC21104AC3F803
:10043C00F421C3F8F021C3F8EC21C3F8E821C3F888
:10044C00E421C3F8E021C3F8DC21C3F8D821C3F8B8
:10045C00D421C3F8D021C3F8CC21C3F8C821C3F8E8
:10046C00C421002010BC7047E4000020E8060020E6
:10047C00EFBEADDEF8B507460E46154672B60E4C0D
:10048C0004F10803636004F11003E360646100206D
:10049C00FFF7BEFF0120FFF7BBFF0220FFF7B8FFFD
:1004AC00064BC3F8F871C3F8F863C3F8F855044B5E
:1004BC001C6062B60020F8BDE8060020E4000020B5
:1004CC00E406002072B62DE9F00F06480168C1F869
:1004DC0000D04A680260D2F800D0BDE8F00F62B6D6
:1004EC0070470000E406002072B607480168D1F896
:1004FC0000D0BDE8F01F0FBC01B05DF804EB01B0FB
:10050C0062B6704770470000E406002008B54FF053
:10051C00E0220021116191610C4B1B680C49A1FB7D
:10052C0003139B090B490B6000FB03F3013B536165
:10053C00094BF02183F82310136943F00203136174
:10054C0007231361FFF7D0FF08BD00BF0800002090
:10055C00D34D6210E000002000ED00E0FEE7FEE766
:10056C00FEE7FEE7FEE770477047704710B504469C
:10057C000E4B18784FF47A73B3FBF0F30C4A1068F7
:10058C00B0FBF3F000F092FC68B90F2C01D90120FC
:10059C000AE0002221464FF0FF3000F04FFC054BE3
:1005AC001C60002000E0012010BD00BF00000020F6
:1005BC000800002004000020014B1868704700BFA1
:1005CC000007002082B0084B1B68084AA2FB0323DB
:1005DC005B0A00FB03F3019300BF019B5A1E0192BF
:1005EC00002BF9D102B0704708000020D34D6210E7
:1005FC00002800F0F18170B582B00446036813F056
:10060C00010F2CD0994B5B6803F00C03042B1DD00D
:10061C00964B5B6803F00C03082B12D06368B3F5A0
:10062C00803F41D0002B55D103F1804303F50433B7
:10063C001A6822F480321A601A6822F480221A6036
:10064C0037E08A4B5B6813F4803FE7D0874B1B681D
:10065C0013F4003F03D06368002B00F0BF812368C4
:10066C0013F0020F75D0814B5B6813F00C0F5FD049
:10067C007E4B5B6803F00C03082B54D02369002BD2
:10068C0000F08A807A4B01221A60FFF795FF05462D
:10069C00764B1B6813F0020F75D1FFF78DFF401BD3
:1006AC000228F5D903209EE1704A136843F4803385
:1006BC001360636843B3FFF77FFF05466B4B1B6802
:1006CC0013F4003FCBD1FFF777FF401B6428F5D91B
:1006DC00032088E1B3F5A02F09D0644B1A6822F4EB
:1006EC0080321A601A6822F480221A60E1E703F162
:1006FC008043A3F53C331A6842F480221A601A68CE
:10070C0042F480321A60D4E7FFF756FF0546574B88
:10071C001B6813F4003FA2D0FFF74EFF401B642868
:10072C00F5D903205FE1514B5B6813F4803FA5D1F1
:10073C004E4B1B6813F0020F03D02369012B40F0C2
:10074C004F814A4A136823F0F803616943EAC103F5
:10075C001360236813F0080F33D0A369002B5CD00F
:10076C00434B0122C3F88024FFF726FF05463F4B7D
:10077C005B6A13F0020F21D1FFF71EFF401B02280A
:10078C00F5D903202FE1394A136823F0F803616986
:10079C0043EAC1031360DCE7354B00221A60FFF714
:1007AC000BFF0546314B1B6813F0020FD1D0FFF73E
:1007BC0003FF401B0228F5D9032014E10120FFF7A9
:1007CC0001FF236813F0040F00F09680274BDB69C0
:1007DC0013F0805F34D1254BDA6942F08052DA6134
:1007EC00DB6903F080530193019B0125214B1B68AE
:1007FC0013F4807F26D0E368012B3DD0002B53D11E
:10080C0003F1804303F504331A6A22F001021A62E1
:10081C001A6A22F004021A6233E0154B0022C3F864
:10082C008024FFF7C9FE0546104B5B6A13F0020FDC
:10083C00C7D0FFF7C1FE401B0228F5D90320D2E038
:10084C000025D3E70B4A136843F480731360FFF75A
:10085C00B3FE0646074B1B6813F4807FCBD1FFF722
:10086C00ABFE801B6428F5D90320BCE000100240CD
:10087C0000004242007000405F4A136A43F00103DB
:10088C001362E36833B3FFF797FE06465A4B1B6AB5
:10089C0013F0020F2FD1FFF78FFE801B41F288332C
:1008AC009842F3D903209EE0052B09D0524B1A6ACB
:1008BC0022F001021A621A6A22F004021A62E0E7BC
:1008CC004D4B1A6A42F004021A621A6A42F0010293
:1008DC001A62D6E7FFF770FE0646474B1B6A13F009
:1008EC00020F08D0FFF768FE801B41F28833984254
:1008FC00F3D9032077E0E5B9E369002B72D03E4AC7
:10090C00526802F00C02082A56D0022B17D03B4B2F
:10091C0000221A66FFF750FE0446374B1B6813F093
:10092C00007F47D0FFF748FE001B0228F5D90320B3
:10093C0059E0314AD36923F08053D361DCE72F4B64
:10094C0000221A66FFF738FE05462B4B1B6813F086
:10095C00007F06D0FFF730FE401B0228F5D903209C
:10096C0041E0236AB3F5803F1AD023494B6823F446
:10097C007413226A606A024313434B601F4B0122BB
:10098C001A66FFF719FE04461B4B1B6813F0007F19
:10099C000ED1FFF711FE001B0228F5D9032022E02F
:1009AC00154A536823F40033A1680B435360DCE70A
:1009BC00002018E0002016E0012B16D00E4B5B68CF
:1009CC0003F48031226A914211D103F47013626AEC
:1009DC0093420ED1002006E001207047012002E076
:1009EC00012000E0002002B070BD0120FBE70120D7
:1009FC00F9E70120F7E700BF001002400000424277
:100A0C000F4B5B6803F00C02082A01D00D487047AD
:100A1C00C3F383420C49885C13F4803F0BD0084B22
:100A2C005B68C3F34043094AD35C064A02FB00F0FF
:100A3C00B0FBF3F07047064B03FB00F0704700BFB0
:100A4C000010024000127A003022000840220008F8
:100A5C0000093D00002800F0A08070B50D4604464A
:100A6C00524B1B6803F007038B420BD24F4A13689F
:100A7C0023F007030B431360136803F007038B4247
:100A8C0040F08D80236813F0020F17D013F0040F81
:100A9C0004D0474A536843F4E0635360236813F06F
:100AAC00080F04D0424A536843F460535360404AE1
:100ABC00536823F0F003A1680B435360236813F0D1
:100ACC00010F31D06368012B20D0022B25D0384A7E
:100ADC00126812F0020F64D035494A6822F0030202
:100AEC0013434B60FFF768FD0646314B5B6803F020
:100AFC000C036268B3EB820F16D0FFF75DFD801B11
:100B0C0041F288339842F0D9032045E0284A126814
:100B1C0012F4003FE0D101203EE0254A126812F0A9
:100B2C00007FD9D1012037E0204B1B6803F007036D
:100B3C00AB420AD91D4A136823F007032B431360F9
:100B4C00136803F00703AB422DD1236813F0040F95
:100B5C0006D0174A536823F4E063E1680B435360F3
:100B6C00236813F0080F07D0114A536823F460531D
:100B7C00216943EAC1035360FFF742FF0C4B5B68EA
:100B8C00C3F303130B4AD35CD8400B4B18600B4BCD
:100B9C001868FFF7EBFC002070BD012070470120A6
:100BAC00FAE70120F8E70120F6E700BF0020024039
:100BBC00001002404422000808000020040000201D
:100BCC00014B1868704700BF0800002008B5FFF7FC
:100BDC00F7FF044B5B68C3F30223034AD35CD84092
:100BEC0008BD00BF001002405422000808B5FFF7F2
:100BFC00E7FF044B5B68C3F3C223034AD35CD840C2
:100C0C0008BD00BF001002405422000870B582B02D
:100C1C000024A446A6E0804DAA4210D007D97F4DEF
:100C2C00AA420CD005F58035AA4208D013E0A5F5F0
:100C3C008015AA4203D005F57025AA4207D18A680F
:100C4C00002A58D0012A51D04361082403E0A5F5AD
:100C5C008015AA42F3D0BEF1FF0F4ED80646BEF166
:100C6C00FF0F4CD84FEA8C0233680F25954023EACE
:100C7C00050304FA02F2134333604B6813F0805FF0
:100C8C006ED0674B9A6942F001029A619B6903F03E
:100C9C0001030193019B4FEA9C02951C614B53F895
:100CAC0025600CF003039D000F23AB4026EA0306DE
:100CBC005D4B984229D003F58063984200F08E80FA
:100CCC0003F58063984200F08B8003F580639842B3
:100CDC0019D004231AE0CC68BDE7CC680434BAE719
:100CEC00CC680834B7E7CC680C34B4E7036108244B
:100CFC00B1E70024AFE70424ADE7061DAFE7ACF184
:100D0C0008029200B0E7032300E00023AB4033431A
:100D1C000232444D45F822304B6813F4801F61D0E9
:100D2C00424A936843EA0E0393604B6813F4001F26
:100D3C005ED03E4AD36843EA0E03D3604B6813F48B
:100D4C00003F5BD0394A536843EA0E0353604B684B
:100D5C0013F4803F58D0354A136843EA0E031360EE
:100D6C000CF1010C0A6832FA0CF353D0012303FA8C
:100D7C000CF302EA030E33EA0202F1D14A68122A9A
:100D8C003FF649AF122A3FF666AF01A555F822F09F
:100D9C004B0C0008E30C0008ED0C0008FF0C0008DD
:100DAC00630C0008630C0008630C0008630C00085B
:100DBC00630C0008630C0008630C0008630C00084B
:100DCC00630C0008630C0008630C0008630C00083B
:100DDC00630C0008E70C0008F30C0008012395E7EE
:100DEC00022393E7114A936823EA0E0393609CE76E
:100DFC000E4AD36823EA0E03D3609FE70B4A53686D
:100E0C0023EA0E035360A2E7084A136823EA0E0391
:100E1C001360A5E702B070BD000022100000311075
:100E2C000010024000000140000801400004014095
:100E3C000AB10161704709040161704700B5194B93
:100E4C00DB68C3F30223C3F1070CBCF1040F28BF0A
:100E5C004FF0040C03F1040EBEF1060F18D9033B3E
:100E6C004FF0FF3E0EFA0CFC21EA0C0199400EFAF1
:100E7C0003F322EA0303194300280BDB0901C9B26F
:100E8C0000F1604000F5614080F800135DF804FB50
:100E9C000023E5E700F00F000901C9B2024B195419
:100EAC00F4E700BF00ED00E014ED00E00138B0F114
:100EBC00807F0BD24FF0E0235861054AF02182F875
:100ECC0023100020986107221A6170470120704797
:100EDC0000ED00E010B504460268136923F440539A
:100EEC00C1680B43136183680269134342691A4357
:100EFC000168CB6823F4B05323F00C031343CB608D
:100F0C000268536923F4407381690B43536102688F
:100F1C00134B9A4220D0FFF759FE024602EB820295
:100F2C0002EB820263689B00B2FBF3F20D48A0FB5C
:100F3C0002314909642303FB11231B013233A0FB4B
:100F4C0003235B0903F0F00202EB011203F00F0321
:100F5C00216813448B6010BDFFF748FE0246DDE7A5
:100F6C00003801401F85EB5160B310B5044690F872
:100F7C00413013B3242384F841302268D36823F41E
:100F8C000053D3602046FFF7A5FF2268136923F4B2
:100F9C00904313612268536923F02A03536122683A
:100FAC00D36843F40053D36000206064202384F89A
:100FBC00413084F84230606310BD80F84030FFF758
:100FCC00EBF9D7E70120704770470000FFF7FCFFF3
:100FDC000B480C490C4A002302E0D458C45004338B
:100FEC00C4188C42F9D3094A094C002301E0136060
:100FFC000432A242FBD300F00FF8FFF75BF9704705
:10100C000000002070000020FC220008700000206E
:10101C0018070020FEE7000070B500260C4D0D4CA3
:10102C00641BA410A64209D101F0D6F800260A4D83
:10103C000A4C641BA410A64205D170BD55F8043BA4
:10104C0098470136EEE755F8043B98470136F2E72E
:10105C00F4220008F4220008F4220008F822000808
:10106C0003460244934200D1704703F8011BF9E791
:10107C0070B50E46054618B183690BB900F064FAD9
:10108C00AB69AC6813B9284600F05EFA2C4B9C4255
:10109C0020D16C68636EDB0705D4A389980502D454
:1010AC00A06D00F0EFFAA38919071DD52369DBB1F8
:1010BC00013EA36816F8011F013BA36039BB002B4E
:1010CC0038DA22460A21284600F068F8013011D09F
:1010DC000A2511E01B4B9C4201D1AC68DAE71A4B94
:1010EC009C4208BFEC68D5E72146284600F0A8F8DA
:1010FC000028DDD04FF0FF35636EDA0705D4A389E5
:10110C009B0502D4A06D00F0BEFA284670BD002BE2
:10111C0004DAA2699A4206DC0A2904D023685A1C14
:10112C0022601970C5E72246284600F037F80130D6
:10113C00BFD1DFE70A2523685A1C22601D70DBE74C
:10114C0080220008A022000860220008024B014601
:10115C001868FFF78DBF00BF0C00002000B59BB0D6
:10116C00009104916FF000410591029105490391A2
:10117C00694600F027FC0022009B1A701BB05DF83A
:10118C0004FB00BF0802FFFF13460A460146024853
:10119C000068FFF7E3BF00BF0C000020F8B50E4657
:1011AC001446054618B183690BB900F0CDF9214BF3
:1011BC009C422BD16C68A369A360A3891A072FD515
:1011CC0023696BB323692068F6B2C01A636937468A
:1011DC00834204DC2146284600F022F930BBA36888
:1011EC000130013BA36023685A1C22601E706369A6
:1011FC00834204D0A389DB0706D50A2E04D12146ED
:10120C00284600F00DF988B93846F8BD0A4B9C42C7
:10121C0001D1AC68CFE7094B9C4208BFEC68CAE728
:10122C002146284600F00CF80028CBD04FF0FF37B1
:10123C00EAE700BF80220008A02200086022000814
:10124C00324B70B51D6806460C4625B1AB6913B917
:10125C00284600F079F92E4B9C420FD16C68A3897B
:10126C00B4F90C2019072CD4DD0611D409233360F2
:10127C0042F040034FF0FF30A3813EE0254B9C42EF
:10128C0001D1AC68EBE7244B9C4208BFEC68E6E765
:10129C00580712D5616B41B104F14403994202D055
:1012AC00304600F057FA00236363A38923F024032C
:1012BC00A3810023636023692360A38943F008039F
:1012CC00A38123694BB9A38903F42073B3F5007F81
:1012DC0003D02146304600F0FDF9A089B4F90C206A
:1012EC0010F001030AD00023A36063695B42A36181
:1012FC00236943B910F08000BAD170BD810758BF83
:10130C006369A360F4E70020F7E700BF0C0000203E
:10131C0080220008A0220008602200088A89F8B503
:10132C00054610070C4657D44B68002B04DC0B6C9D
:10133C00002B01DC0020F8BDE66A002EFAD0002359
:10134C0012F480522F682B6032D0606DA3895A073B
:10135C0005D56368C01A636B0BB1236CC01A0023EC
:10136C000246E66A2846216AB047431CA38906D187
:10137C0029681D292CD8294ACA40D60728D500220D
:10138C0062602269D904226004D5421C01D12B6809
:10139C0003B96065616B2F600029CBD004F1440365
:1013AC00994202D0284600F0D5F900206063C2E7CC
:1013BC00216A01232846B047411CC7D12B68002B5A
:1013CC00C4D01D2B01D0162B01D12F60B2E7A389FD
:1013DC0043F04003A381AEE70F69002FAAD0930717
:1013EC0018BF00230E6808BF4B69F61B0F608B609B
:1013FC00002E9FDD33463A462846216AD4F828C091
:10140C00E047002806DCA3894FF0FF3043F040038F
:10141C00A38190E70744361AEAE700BF0100402099
:10142C0038B50B6905460C4613B90025284638BD5E
:10143C0018B183690BB900F087F8144B9C421BD18F
:10144C006C68B4F90C30002BEFD0626ED00704D46A
:10145C00990502D4A06D00F015F928462146FFF736
:10146C005DFF636E0546DA07E0D4A3899B05DDD4E6
:10147C00A06D00F008F9D9E7054B9C4201D1AC688E
:10148C00DFE7044B9C4208BFEC68DAE780220008D7
:10149C00A022000860220008002310B50446C0E911
:1014AC000033C0E90433836081814366C281836168
:1014BC00194608225C30FFF7D3FD054B24626362AA
:1014CC00044BA362044BE362044B236310BD00BFC7
:1014DC001D1F00083F1F0008771F00089B1F0008F6
:1014EC00014900F0AFB800BF2D140008682270B598
:1014FC004D1E55430E4605F1740100F093F9044658
:10150C0040B10021C0E900160C30A06005F1680262
:10151C00FFF7A6FD204670BD014800F0B3B800BF30
:10152C0005070020014800F0AEB800BF05070020F9
:10153C00014800F0A7B800BF06070020014800F0E2
:10154C00A2B800BF0607002010B50446FFF7F0FF55
:10155C00A3691BB1BDE81040FFF7F0BFC4E912331B
:10156C002365134B134A1B68A262A34208BF0123D5
:10157C00204608BFA36100F01FF86060204600F011
:10158C001BF8A060204600F017F800220421E06050
:10159C006068FFF781FF01220921A068FFF77CFF3B
:1015AC0002221221E068FFF777FF0123A361D1E744
:1015BC005C220008ED140008F8B50746FFF7ACFFF5
:1015CC001E4B1E68B36913B93046FFF7BDFF483692
:1015DC00D6E90134013B03D533680BB33668F7E722
:1015EC00B4F90C50D5B9164B04F15800E36065669C
:1015FC0000F047F8FFF796FF08222946C4E9015589
:10160C00C4E904552560A56104F15C00FFF728FDD1
:10161C00C4E90D55C4E912552046F8BD6834D9E724
:10162C0004213846FFF762FF044630600028D5D10C
:10163C00FFF778FF0C233B60EEE700BF5C2200084D
:10164C000100FFFF2DE9F84306468846002700F10C
:10165C004804D4E90195B9F1010905D52468002C99
:10166C00F7D13846BDE8F883AB89012B07D9B5F91A
:10167C000E30013303D029463046C0470743683546
:10168C00E9E770477047704770B50E46B1F90E1018
:10169C00144600291D4696B008DA0022B6F90C3023
:1016AC002A601A0610D44FF480630EE06A4600F0EC
:1016BC0095FC0028F1DB019A02F47042A2F500536C
:1016CC005A425A412A60EEE740230020236016B0AC
:1016DC0070BD00008B8973B59D0706460C4607D577
:1016EC0004F14703236023610123636102B070BDE1
:1016FC006A4601ABFFF7C8FF00990546304600F07B
:10170C0091F848B9B4F90C309A05EFD423F00303DF
:10171C0043F00203A381E3E70D4BB362A38920607E
:10172C0043F08003A381009B20616361019B5BB14B
:10173C003046B4F90E1000F063FC28B1A38923F0F5
:10174C00030343F00103A381A0890543A581CDE7E1
:10175C00ED14000838B50546002940D051F8043C7A
:10176C000C1F002BB8BFE41800F0A2FC1C4A136835
:10177C0033B9636014602846BDE8384000F09EBC65
:10178C00A34208D9206821188B4201BF19685B68F5
:10179C0009182160EDE71A465B680BB1A342FAD930
:1017AC0011685018A0420BD1206801445018834294
:1017BC001160E0D118685B68014411605360DAE78E
:1017CC0002D90C232B60D6E7206821188B4201BF6D
:1017DC0019685B680918216063605460CBE738BDF9
:1017EC000807002070B50E4E0C463168054611B93D
:1017FC0000F07EFB30602146284600F079FB431C4C
:10180C000AD0C41C24F00304A04207D0211A284695
:10181C0000F06EFB013001D14FF0FF34204670BD5B
:10182C000C0700202DE9F041CD1C25F003050835EF
:10183C000C2D38BF0C25002D074601DBA94205D91C
:10184C000C2300263B603046BDE8F0812E4E00F0A4
:10185C002FFC33681C4634BB29463846FFF7C2FFC1
:10186C00431C04464DD134682646002E40D12368D3
:10187C003146384604EB030800F03AFB80453AD178
:10188C00216803356D1A25F0030508350C2D38BF7A
:10189C000C2538462946FFF7A5FF01302BD02368CD
:1018AC002B4423600EE02268521B1ED40B2A16D93F
:1018BC006119A342256018BF5960636808BF316085
:1018CC0062514B60384604F10B0600F0F7FB26F032
:1018DC000706231DF21AB6D09B1BA350B3E7626810
:1018EC00A3420CBF32605A60ECE723466468B2E74F
:1018FC0034467668B9E70C2338463B6000F0DEFBD3
:10190C00A1E72560DEE700BF080700202DE9F047BE
:10191C008E6882469E420C4690461F4638D88A896D
:10192C0012F4906F32D0256809690133A5EB0109D7
:10193C0065694B4405EB450505EBD5756D109D426E
:10194C0038BF1D46530531D52946FFF76BFF0646B8
:10195C0050B90C234FF0FF30CAF80030A38943F084
:10196C004003A381BDE8F0874A46216900F078FB6B
:10197C00A38923F4906343F08003A38126614E4432
:10198C0026603E466561A5EB0905A560BE4200D9FF
:10199C003E4632464146206800F070FBA3680020AA
:1019AC009B1BA360236833442360DBE72A4600F0CB
:1019BC008BFB06460028E1D150462169FFF7CAFE91
:1019CC00C7E700002DE9F04F98468B8907461B06A8
:1019DC000D4614469DB00ED50B6963B94021FFF737
:1019EC0021FF2860286120B90C233B604FF0FF30A9
:1019FC00D1E040236B610023099320238DF829301B
:101A0C0030234FF00109CDF80C80DFF8A4818DF85C
:101A1C002A3023469A4613F8012B0AB1252AF9D10C
:101A2C00BAEB040B0BD05B46224629463846FFF72F
:101A3C006DFF013000F0AA80099A5A4409929AF875
:101A4C000030002B00F0A28000234FF0FF32CDE9D4
:101A5C0005230AF1010A049307938DF853301A9366
:101A6C005446052214F8011B514800F0EBFA049A75
:101A7C00D8B9D00644BF20238DF85330110744BF8A
:101A8C002B238DF853309AF800302A2B15D054465E
:101A9C0000204FF00A0C079A214611F8013B303B0D
:101AAC00092B4ED9B0B1079214E0A0EB080309FA48
:101ABC0003F31343A2460493D2E7039B191D1B683F
:101ACC000391002BBBBF5B4242F0020207930793CA
:101ADC00B8BF049223782E2B0CD163782A2B35D1E6
:101AEC00039B02341A1D1B680392002BB8BF4FF0E6
:101AFC00FF330593DFF8BCA003225046217800F099
:101B0C00A1FA40B14023A0EB0A0003FA00F0049BB9
:101B1C0001340343049314F8011B062226488DF864
:101B2C00281000F08FFA002838D0244B1BBB039BE5
:101B3C00073323F0070308330393099B33440993BA
:101B4C0067E70C4601200CFB0232A5E700234FF09F
:101B5C000A0C194601340593204610F8012B303A33
:101B6C00092A03D9002BC5D00591C3E704460123EC
:101B7C000CFB0121F0E703AB00932A463846104BCF
:101B8C0004A9AFF30080421C0646D6D1AB895B0694
:101B9C003FF52CAF09981DB0BDE8F08F03AB009357
:101BAC002A463846064B04A900F07CF8EBE700BF48
:101BBC00C0220008C6220008CA220008000000004B
:101BCC00191900082DE9F047164699468A680B69E1
:101BDC0007469342B8BF1346336091F843200C4636
:101BEC00DDF820800AB1013333602368990642BFC7
:101BFC00336802333360256815F0060506D104F10D
:101C0C00190AE36832689B1AAB4228DC94F843202B
:101C1C00131E226818BF012392062DD4494638465C
:101C2C0004F14302C047013020D02368E56803F07B
:101C3C000603042B18BF002532684FF00006A3687A
:101C4C0008BFAD1A226908BF25EAE5759342C4BFE7
:101C5C009B1AED181A34B5421AD1002008E0012362
:101C6C00524649463846C047013003D14FF0FF3049
:101C7C00BDE8F0870135C4E73020E11881F8430056
:101C8C005A1C94F845102244023382F84310C5E7DD
:101C9C000123224649463846C0470130E6D001367A
:101CAC00D9E700002DE9FF470F7E9146782F80463B
:101CBC000C469A460C9D01F1430207D8622F0AD8B4
:101CCC00002F00F0D980582F00F0A48004F14205B9
:101CDC0084F842703AE0A7F16303152BF6D801A102
:101CEC0051F823F0491D00085D1D0008D91C00089F
:101CFC00D91C0008D91C0008D91C00085D1D00085F
:101D0C00D91C0008D91C0008D91C0008D91C0008D3
:101D1C006B1E00088D1D00084D1E0008D91C000804
:101D2C00D91C00088D1E0008D91C00088D1D000848
:101D3C00D91C0008D91C0008551E00082B681A1D58
:101D4C001B682A6004F1420584F842300123A4E0A8
:101D5C0020682968060601F104030AD50E682B6079
:101D6C00002E03DA2D23764284F843300A235E4892
:101D7C0019E00E6810F0400F2B6018BF36B2EFE779
:101D8C002B682068191D2960010601D51E6802E028
:101D9C004606FBD51E886F2F0CBF08230A2352481A
:101DAC00002184F843106568002DA8BF2168A56048
:101DBC00A4BF21F0040121600EB9002D4DD01546B1
:101DCC00B6FBF3F103FB1167C75D05F8017D3746E0
:101DDC00BB420E46F4D9082B0BD12368DE0708D57D
:101DEC00236961689942DEBF302305F8013C05F197
:101DFC00FF35521B22614B4621464046CDF800A0D0
:101E0C0003AAFFF7DFFE01304CD14FF0FF3004B0D6
:101E1C00BDE8F087344881F845702968236851F88B
:101E2C00046B29601D0614D5DF0744BF43F0200363
:101E3C0023601EB9236823F0200323601023AFE72F
:101E4C00236843F0200323607823284884F8453026
:101E5C00E3E7590648BFB6B2E6E71546BBE72B6881
:101E6C002668181D6169286035061B6801D5196044
:101E7C0002E07006FBD51980002315462361BAE7F2
:101E8C002B6800211A1D2A601D686268284600F024
:101E9C00D9F808B1401B606063682361002384F8A3
:101EAC004330A8E72A46494640462369D0470130CB
:101EBC00ABD023689B0713D4E068039B9842B8BF50
:101ECC001846A4E70123324649464046D047013024
:101EDC009BD00135E36803995B1AAB42F2DCEBE76C
:101EEC00002504F11906F5E7D1220008E2220008CA
:101EFC0038B50023054D044608462B6000F056F912
:101F0C00431C02D12B6803B1236038BD100700209D
:101F1C0010B50C46B1F90E1000F006F90028ABBF55
:101F2C00636DA3891B1823F48053ACBF6365A38135
:101F3C0010BD2DE9F0411F468B890546DB050C468B
:101F4C00164605D502230022B1F90E1000F068F8F0
:101F5C00A389324623F48053A38128463B46B4F927
:101F6C000E10BDE8F04100F017B810B50C46B1F9F1
:101F7C000E1000F055F8431CA38915BF606523F4BF
:101F8C00805343F48053A38118BFA38110BDB1F9D2
:101F9C000E1000F013B8000038B504460846114680
:101FAC000022054D2A601A4600F00EF9431C02D19E
:101FBC002B6803B1236038BD1007002038B500230F
:101FCC00054D044608462B6000F0C8F8431C02D1AE
:101FDC002B6803B1236038BD1007002038B50023EF
:101FEC00064D0446084611462B6000F0BFF8431C12
:101FFC0002D12B6803B1236038BD00BF100700204D
:10200C0038B50023054D044608462B6000F0B6F8A1
:10201C00431C02D12B6803B1236038BD100700208C
:10202C0038B50446084611460022054D2A601A466A
:10203C0000F0ACF8431C02D12B6803B1236038BD0F
:10204C0010070020034610B5C9B20244934218464B
:10205C0001D1002003E0047801338C42F6D110BD8D
:10206C000A44914200F1FF3300D1704710B511F8CA
:10207C00014B914203F8014FF9D110BD884210B5C4
:10208C0001EB020402D98442234607D8431EA14225
:10209C0008D011F8012B03F8012FF8E70146024490
:1020AC008A4200D110BD13F8014D02F8014DF7E73B
:1020BC000148FFF7E7BA00BF040700200148FFF70B
:1020CC00E2BA00BF040700202DE9F0418046144617
:1020DC000E4621B91146BDE8F041FFF7A3BB2AB962
:1020EC00FFF738FB25462846BDE8F08100F02EF8B6
:1020FC008442074602D8B4EB500F12D82146404612
:10210C00FFF790FB05460028EDD0BC422246314635
:10211C0028BF3A46FFF7A4FF31464046FFF71AFBAB
:10212C00E1E73546DFE7000038B5044608461146BE
:10213C000022054D2A601A4600F030F8431C02D1EB
:10214C002B6803B1236038BD1007002051F8043C04
:10215C00181F002BBCBF0B58C01870475822024BDD
:10216C004FF0FF301A607047100700205822024BC6
:10217C004FF0FF301A607047100700205822024BB6
:10218C0000201A60704700BF100700205822024B35
:10219C004FF0FF301A607047100700205822024B96
:1021AC004FF0FF301A60704710070020044A0549B1
:1021BC001368002B08BF0B46184410601846704774
:1021CC0014070020180700205822024B4FF0FF3054
:1021DC001A60704710070020F8B500BFF8BC08BCA7
:1021EC009E467047F8B500BFF8BC08BC9E467047C9
:1021FC00496E207461736B20300D0A00496E207497
:10220C0061736B20310D0A00496E207461736B2071
:10221C00320D0A005374617274696E672052544F08
:10222C005300000002030405060708090A0B0C0DF5
:10223C000E0F101001020000000000000000000052
:10224C000102030406070809000000000102030450
:10225C001000002000000000000000000000000042
:10226C000000000000000000000000000000000062
:10227C000000000000000000000000000000000052
:10228C000000000000000000000000000000000042
:10229C000000000000000000000000000000000032
:1022AC000000000000000000000000000000000022
:1022BC0000000000232D302B2000686C4C0065665C
:1022CC00674546470030313233343536373839417B
:1022DC004243444546003031323334353637383991
:0822EC00616263646566000095
:0422F40031010008AC
:0422F8000D010008CC
:1022FC0001000000100000000024F4001000002079
:10230C000000000080220008A022000860220008C3
:10231C0000000000000000000000000000000000B1
:10232C0000000000000000000000000000000000A1
:10233C000000000000000000000000000000000091
:10234C000000000000000000000000000000000081
:10235C000000000000000000000000000000000071
:0400000508000FD907
:00000001FF
